{
  "contractName": "LoyaltyTokenMockup",
  "abi": [
    {
      "constant": false,
      "inputs": [
        {
          "internalType": "address",
          "name": "_owner",
          "type": "address"
        },
        {
          "internalType": "uint256",
          "name": "_amount",
          "type": "uint256"
        }
      ],
      "name": "mintLoyaltyTokens",
      "outputs": [],
      "payable": false,
      "stateMutability": "nonpayable",
      "type": "function"
    },
    {
      "constant": true,
      "inputs": [
        {
          "internalType": "address",
          "name": "_owner",
          "type": "address"
        }
      ],
      "name": "balanceOf",
      "outputs": [
        {
          "internalType": "uint256",
          "name": "",
          "type": "uint256"
        }
      ],
      "payable": false,
      "stateMutability": "view",
      "type": "function"
    },
    {
      "constant": false,
      "inputs": [
        {
          "internalType": "address",
          "name": "_to",
          "type": "address"
        },
        {
          "internalType": "uint256",
          "name": "_amount",
          "type": "uint256"
        }
      ],
      "name": "transfer",
      "outputs": [
        {
          "internalType": "bool",
          "name": "",
          "type": "bool"
        }
      ],
      "payable": false,
      "stateMutability": "nonpayable",
      "type": "function"
    },
    {
      "constant": false,
      "inputs": [
        {
          "internalType": "address",
          "name": "_from",
          "type": "address"
        },
        {
          "internalType": "address",
          "name": "_to",
          "type": "address"
        },
        {
          "internalType": "uint256",
          "name": "_amount",
          "type": "uint256"
        }
      ],
      "name": "transferFrom",
      "outputs": [
        {
          "internalType": "bool",
          "name": "",
          "type": "bool"
        }
      ],
      "payable": false,
      "stateMutability": "nonpayable",
      "type": "function"
    },
    {
      "constant": false,
      "inputs": [
        {
          "internalType": "address",
          "name": "_spender",
          "type": "address"
        },
        {
          "internalType": "uint256",
          "name": "_value",
          "type": "uint256"
        }
      ],
      "name": "approve",
      "outputs": [
        {
          "internalType": "bool",
          "name": "success",
          "type": "bool"
        }
      ],
      "payable": false,
      "stateMutability": "nonpayable",
      "type": "function"
    },
    {
      "constant": false,
      "inputs": [
        {
          "internalType": "address",
          "name": "account",
          "type": "address"
        },
        {
          "internalType": "uint256",
          "name": "amount",
          "type": "uint256"
        }
      ],
      "name": "burnFrom",
      "outputs": [],
      "payable": false,
      "stateMutability": "nonpayable",
      "type": "function"
    }
  ],
  "bytecode": "0x608060405234801561001057600080fd5b506105d7806100206000396000f3fe608060405234801561001057600080fd5b50600436106100625760003560e01c8063095ea7b31461006757806323b872dd146100a7578063598f4bc2146100dd57806370a082311461010b57806379cc679014610143578063a9059cbb1461016f575b600080fd5b6100936004803603604081101561007d57600080fd5b506001600160a01b03813516906020013561019b565b604080519115158252519081900360200190f35b610093600480360360608110156100bd57600080fd5b506001600160a01b038135811691602081013590911690604001356101d1565b610109600480360360408110156100f357600080fd5b506001600160a01b038135169060200135610272565b005b6101316004803603602081101561012157600080fd5b50356001600160a01b03166102bb565b60408051918252519081900360200190f35b6101096004803603604081101561015957600080fd5b506001600160a01b0381351690602001356102d6565b6100936004803603604081101561018557600080fd5b506001600160a01b0381351690602001356103dc565b503360009081526001602081815260408084206001600160a01b03959095168452939052918120805460ff191690921790915590565b6001600160a01b038316600090815260208190526040812054821161026b576001600160a01b038416600090815260208190526040902054610219908363ffffffff61046f16565b6001600160a01b03808616600090815260208190526040808220939093559085168152205461024e908363ffffffff6104b116565b6001600160a01b0384166000908152602081905260409020555060015b9392505050565b6001600160a01b03821660009081526020819052604090205461029b908263ffffffff6104b116565b6001600160a01b0390921660009081526020819052604090209190915550565b6001600160a01b031660009081526020819052604090205490565b6001600160a01b03821660009081526020819052604090205481111561033b576040805162461bcd60e51b8152602060048201526015602482015274496e73756666696369656e742062616c6c616e636560581b604482015290519081900360640190fd5b6001600160a01b038216600090815260016020908152604080832033845290915290205460ff166103b3576040805162461bcd60e51b815260206004820152601b60248201527f4e6f7420617070726f76656420746f206275726e20746f6b656e730000000000604482015290519081900360640190fd5b6001600160a01b03821660009081526020819052604090205461029b908263ffffffff61046f16565b3360009081526020819052604081205482116104655733600090815260208190526040902054610412908363ffffffff61046f16565b33600090815260208190526040808220929092556001600160a01b03851681522054610444908363ffffffff6104b116565b6001600160a01b038416600090815260208190526040902055506001610469565b5060005b92915050565b600061026b83836040518060400160405280601e81526020017f536166654d6174683a207375627472616374696f6e206f766572666c6f77000081525061050b565b60008282018381101561026b576040805162461bcd60e51b815260206004820152601b60248201527f536166654d6174683a206164646974696f6e206f766572666c6f770000000000604482015290519081900360640190fd5b6000818484111561059a5760405162461bcd60e51b81526004018080602001828103825283818151815260200191508051906020019080838360005b8381101561055f578181015183820152602001610547565b50505050905090810190601f16801561058c5780820380516001836020036101000a031916815260200191505b509250505060405180910390fd5b50505090039056fea265627a7a7231582056b9d8779e093388f80f5afba81e443a259913c69c72446181518babb82cd74264736f6c634300050f0032",
  "source": "pragma solidity ^0.5.1;\n\nimport \"@openzeppelin/contracts-ethereum-package/contracts/token/ERC20/ERC20.sol\";\nimport \"@nomiclabs/buidler/console.sol\";\n\n\ncontract LoyaltyTokenMockup {\n    using SafeMath for uint256;\n\n    mapping(address => uint256) balances;\n    mapping(address => mapping(address => bool)) isApproved;\n\n    function mintLoyaltyTokens(address _owner, uint256 _amount) public {\n        balances[_owner] = balances[_owner].add(_amount);\n    }\n\n    function balanceOf(address _owner) public view returns (uint256) {\n        return balances[_owner];\n    }\n\n    function transfer(address _to, uint256 _amount) public returns (bool) {\n        if (balances[msg.sender] >= _amount) {\n            balances[msg.sender] = balances[msg.sender].sub(_amount);\n            balances[_to] = balances[_to].add(_amount);\n            return true;\n        } else {\n            return false;\n        }\n    }\n\n    function transferFrom(address _from, address _to, uint256 _amount)\n        public\n        returns (bool)\n    {\n        if (balances[_from] >= _amount) {\n            balances[_from] = balances[_from].sub(_amount);\n            balances[_to] = balances[_to].add(_amount);\n            return true;\n        }\n    }\n\n    function approve(address _spender, uint256 _value)\n        public\n        returns (bool success)\n    {\n        isApproved[msg.sender][_spender] = true;\n    }\n\n    function burnFrom(address account, uint256 amount) public {\n        require(balances[account] >= amount, \"Insufficient ballance\");\n        require(isApproved[account][msg.sender], \"Not approved to burn tokens\");\n        balances[account] = balances[account].sub(amount);\n    }\n}\n",
  "sourcePath": "/home/jasoons/Documents/temp/wildcards-contractsQV/contracts/mockups/LoyaltyTokenMockup.sol",
  "compiler": {
    "name": "solc",
    "version": "0.5.15+commit.6a57276f.Emscripten.clang"
  },
  "schemaVersion": "3.0.23",
  "updatedAt": "2020-05-07T08:06:19.883Z",
  "devdoc": {
    "methods": {}
  },
  "userdoc": {
    "methods": {}
  }
}