{
  "contractName": "PlaceholderContract",
  "abi": [
    {
      "payable": true,
      "stateMutability": "payable",
      "type": "fallback"
    },
    {
      "constant": true,
      "inputs": [],
      "name": "admin",
      "outputs": [
        {
          "internalType": "address",
          "name": "",
          "type": "address"
        }
      ],
      "payable": false,
      "stateMutability": "view",
      "type": "function"
    },
    {
      "constant": true,
      "inputs": [],
      "name": "currentHighestVoteCount",
      "outputs": [
        {
          "internalType": "uint256",
          "name": "",
          "type": "uint256"
        }
      ],
      "payable": false,
      "stateMutability": "view",
      "type": "function"
    },
    {
      "constant": true,
      "inputs": [],
      "name": "currentWinner",
      "outputs": [
        {
          "internalType": "uint256",
          "name": "",
          "type": "uint256"
        }
      ],
      "payable": false,
      "stateMutability": "view",
      "type": "function"
    },
    {
      "constant": true,
      "inputs": [],
      "name": "dragonCardId",
      "outputs": [
        {
          "internalType": "uint256",
          "name": "",
          "type": "uint256"
        }
      ],
      "payable": false,
      "stateMutability": "view",
      "type": "function"
    },
    {
      "constant": true,
      "inputs": [
        {
          "internalType": "address",
          "name": "",
          "type": "address"
        }
      ],
      "name": "failedTransferCredits",
      "outputs": [
        {
          "internalType": "uint256",
          "name": "",
          "type": "uint256"
        }
      ],
      "payable": false,
      "stateMutability": "view",
      "type": "function"
    },
    {
      "constant": true,
      "inputs": [
        {
          "internalType": "uint256",
          "name": "",
          "type": "uint256"
        },
        {
          "internalType": "address",
          "name": "",
          "type": "address"
        },
        {
          "internalType": "uint256",
          "name": "",
          "type": "uint256"
        }
      ],
      "name": "hasUserVotedForProposalIteration",
      "outputs": [
        {
          "internalType": "bool",
          "name": "",
          "type": "bool"
        }
      ],
      "payable": false,
      "stateMutability": "view",
      "type": "function"
    },
    {
      "constant": true,
      "inputs": [],
      "name": "latestProposalId",
      "outputs": [
        {
          "internalType": "uint256",
          "name": "",
          "type": "uint256"
        }
      ],
      "payable": false,
      "stateMutability": "view",
      "type": "function"
    },
    {
      "constant": true,
      "inputs": [],
      "name": "loyaltyToken",
      "outputs": [
        {
          "internalType": "contract ILoyaltyToken",
          "name": "",
          "type": "address"
        }
      ],
      "payable": false,
      "stateMutability": "view",
      "type": "function"
    },
    {
      "constant": true,
      "inputs": [
        {
          "internalType": "uint256",
          "name": "",
          "type": "uint256"
        }
      ],
      "name": "proposalAddresses",
      "outputs": [
        {
          "internalType": "address payable",
          "name": "",
          "type": "address"
        }
      ],
      "payable": false,
      "stateMutability": "view",
      "type": "function"
    },
    {
      "constant": true,
      "inputs": [],
      "name": "proposalDeadline",
      "outputs": [
        {
          "internalType": "uint256",
          "name": "",
          "type": "uint256"
        }
      ],
      "payable": false,
      "stateMutability": "view",
      "type": "function"
    },
    {
      "constant": true,
      "inputs": [],
      "name": "proposalIteration",
      "outputs": [
        {
          "internalType": "uint256",
          "name": "",
          "type": "uint256"
        }
      ],
      "payable": false,
      "stateMutability": "view",
      "type": "function"
    },
    {
      "constant": true,
      "inputs": [
        {
          "internalType": "uint256",
          "name": "",
          "type": "uint256"
        },
        {
          "internalType": "uint256",
          "name": "",
          "type": "uint256"
        }
      ],
      "name": "proposalVotes",
      "outputs": [
        {
          "internalType": "uint256",
          "name": "",
          "type": "uint256"
        }
      ],
      "payable": false,
      "stateMutability": "view",
      "type": "function"
    },
    {
      "constant": true,
      "inputs": [
        {
          "internalType": "uint256",
          "name": "",
          "type": "uint256"
        }
      ],
      "name": "state",
      "outputs": [
        {
          "internalType": "enum PlaceholderContract.ProposalState",
          "name": "",
          "type": "uint8"
        }
      ],
      "payable": false,
      "stateMutability": "view",
      "type": "function"
    },
    {
      "constant": true,
      "inputs": [
        {
          "internalType": "uint256",
          "name": "",
          "type": "uint256"
        }
      ],
      "name": "topProject",
      "outputs": [
        {
          "internalType": "uint256",
          "name": "",
          "type": "uint256"
        }
      ],
      "payable": false,
      "stateMutability": "view",
      "type": "function"
    },
    {
      "constant": true,
      "inputs": [],
      "name": "totalVotes",
      "outputs": [
        {
          "internalType": "uint256",
          "name": "",
          "type": "uint256"
        }
      ],
      "payable": false,
      "stateMutability": "view",
      "type": "function"
    },
    {
      "constant": true,
      "inputs": [],
      "name": "votingInterval",
      "outputs": [
        {
          "internalType": "uint256",
          "name": "",
          "type": "uint256"
        }
      ],
      "payable": false,
      "stateMutability": "view",
      "type": "function"
    },
    {
      "constant": true,
      "inputs": [],
      "name": "wildCardSteward",
      "outputs": [
        {
          "internalType": "contract IWildCardSteward",
          "name": "",
          "type": "address"
        }
      ],
      "payable": false,
      "stateMutability": "view",
      "type": "function"
    },
    {
      "constant": true,
      "inputs": [],
      "name": "wildCardToken",
      "outputs": [
        {
          "internalType": "contract IWildCardToken",
          "name": "",
          "type": "address"
        }
      ],
      "payable": false,
      "stateMutability": "view",
      "type": "function"
    },
    {
      "constant": false,
      "inputs": [
        {
          "internalType": "uint256",
          "name": "_votingInterval",
          "type": "uint256"
        },
        {
          "internalType": "contract ILoyaltyToken",
          "name": "_addressOfLoyalyTokenContract",
          "type": "address"
        },
        {
          "internalType": "contract IWildCardToken",
          "name": "_addressOfWildCardTokenContract",
          "type": "address"
        },
        {
          "internalType": "contract IWildCardSteward",
          "name": "_addressOfWildCardStewardContract",
          "type": "address"
        },
        {
          "internalType": "uint256",
          "name": "_dragonCardId",
          "type": "uint256"
        }
      ],
      "name": "initialize",
      "outputs": [],
      "payable": false,
      "stateMutability": "nonpayable",
      "type": "function"
    }
  ],
  "bytecode": "0x6080604052604180546001600160a01b03191661dead17905534801561002457600080fd5b506106d1806100346000396000f3fe6080604052600436106101145760003560e01c80637f0edf33116100a0578063b8f12f1c11610064578063b8f12f1c146102f1578063bb5e711a14610306578063bdd882f014610359578063daf12cd414610383578063f851a440146103d257610114565b80637f0edf3314610273578063924c751414610288578063a17ad776146102b2578063aabe2fe3146102c7578063b7a7a195146102dc57610114565b80635a582260116100e75780635a582260146101d05780637566ad53146102035780637584939914610218578063770aa84d1461022d5780637ce1f8441461025e57610114565b80630d15fd77146101165780630d68eb9e1461013d57806329e28d261461016d5780633e4f49e614610182575b005b34801561012257600080fd5b5061012b6103e7565b60408051918252519081900360200190f35b34801561014957600080fd5b5061012b6004803603604081101561016057600080fd5b50803590602001356103ed565b34801561017957600080fd5b5061012b61040a565b34801561018e57600080fd5b506101ac600480360360208110156101a557600080fd5b5035610410565b604051808260028111156101bc57fe5b60ff16815260200191505060405180910390f35b3480156101dc57600080fd5b5061012b600480360360208110156101f357600080fd5b50356001600160a01b0316610425565b34801561020f57600080fd5b5061012b610437565b34801561022457600080fd5b5061012b61043d565b34801561023957600080fd5b50610242610443565b604080516001600160a01b039092168252519081900360200190f35b34801561026a57600080fd5b5061012b610452565b34801561027f57600080fd5b5061012b610458565b34801561029457600080fd5b50610242600480360360208110156102ab57600080fd5b503561045e565b3480156102be57600080fd5b5061012b610479565b3480156102d357600080fd5b5061012b61047f565b3480156102e857600080fd5b50610242610485565b3480156102fd57600080fd5b50610242610494565b34801561031257600080fd5b506103456004803603606081101561032957600080fd5b508035906001600160a01b0360208201351690604001356104a3565b604080519115158252519081900360200190f35b34801561036557600080fd5b5061012b6004803603602081101561037c57600080fd5b50356104c9565b34801561038f57600080fd5b50610114600480360360a08110156103a657600080fd5b508035906001600160a01b036020820135811691604081013582169160608201351690608001356104db565b3480156103de57600080fd5b506102426105f8565b60445481565b603f60209081526000928352604080842090915290825290205481565b60425481565b603d6020526000908152604090205460ff1681565b60456020526000908152604090205481565b60385481565b60395481565b6034546001600160a01b031681565b603b5481565b603a5481565b603c602052600090815260409020546001600160a01b031681565b60375481565b60435481565b6036546001600160a01b031681565b6035546001600160a01b031681565b603e60209081526000938452604080852082529284528284209052825290205460ff1681565b60406020819052600091825290205481565b600054610100900460ff16806104f457506104f4610607565b80610502575060005460ff16155b61053d5760405162461bcd60e51b815260040180806020018281038252602e81526020018061066f602e913960400191505060405180910390fd5b600054610100900460ff16158015610568576000805460ff1961ff0019909116610100171660011790555b603380546001600160a01b03191633179055603886905561058f428763ffffffff61060d16565b603b5560006042819055604455603480546001600160a01b038088166001600160a01b031992831617909255603580548784169083161790556036805492861692909116919091179055603782905580156105f0576000805461ff00191690555b505050505050565b6033546001600160a01b031681565b303b1590565b600082820183811015610667576040805162461bcd60e51b815260206004820152601b60248201527f536166654d6174683a206164646974696f6e206f766572666c6f770000000000604482015290519081900360640190fd5b939250505056fe436f6e747261637420696e7374616e63652068617320616c7265616479206265656e20696e697469616c697a6564a265627a7a723158202fe3b92964e78469b4ad5b7e98fd66ad8d490d16d90bf3b5caed591a6aa182b964736f6c634300050f0032",
  "source": "pragma solidity 0.5.15;\n\nimport \"@openzeppelin/contracts-ethereum-package/contracts/token/ERC20/ERC20.sol\";\nimport \"@nomiclabs/buidler/console.sol\";\nimport \"./interfaces/ILoyaltyToken.sol\";\nimport \"./interfaces/IWildCardToken.sol\";\nimport \"./interfaces/IWildCardSteward.sol\";\n\n\ncontract PlaceholderContract is Initializable {\n    using SafeMath for uint256;\n\n    //////// MASTER //////////////\n    address public admin;\n\n    //////// External contract specific //////////\n    ILoyaltyToken public loyaltyToken;\n    IWildCardToken public wildCardToken;\n    IWildCardSteward public wildCardSteward;\n    uint256 public dragonCardId;\n\n    //////// Iteration specific //////////\n    uint256 public votingInterval;\n    uint256 public proposalIteration;\n\n    ///////// Proposal specific ///////////\n    uint256 public latestProposalId;\n    uint256 public proposalDeadline; // keeping track of time\n    mapping(uint256 => address payable) public proposalAddresses;\n    enum ProposalState {DoesNotExist, Withdrawn, Active}\n    mapping(uint256 => ProposalState) public state; // ProposalId to current state\n\n    //////// DAO / VOTE specific //////////\n    // TODO: - we can replace `hasUserVotedForProposalIniteration` value with `userProposalVotes` in the future and allow user to vote multiple times\n    mapping(uint256 => mapping(address => mapping(uint256 => bool))) public hasUserVotedForProposalIteration; /// iteration -> userAddress -> proposalId -> bool\n    mapping(uint256 => mapping(uint256 => uint256)) public proposalVotes; /// iteration -> proposalId -> num votes\n    mapping(uint256 => uint256) public topProject;\n    address burnAddress = 0x000000000000000000000000000000000000dEaD;\n    uint256 public currentHighestVoteCount;\n    uint256 public currentWinner;\n    uint256 public totalVotes;\n\n    // if a payment fails, the user will be able to pull the amount stored here:\n    mapping(address => uint256) public failedTransferCredits;\n\n    function initialize(\n        uint256 _votingInterval,\n        ILoyaltyToken _addressOfLoyalyTokenContract,\n        IWildCardToken _addressOfWildCardTokenContract,\n        IWildCardSteward _addressOfWildCardStewardContract,\n        uint256 _dragonCardId\n    ) public initializer {\n        admin = msg.sender;\n        votingInterval = _votingInterval;\n\n        proposalDeadline = now.add(_votingInterval);\n        currentHighestVoteCount = 0;\n        totalVotes = 0;\n\n        // externals:\n        loyaltyToken = _addressOfLoyalyTokenContract;\n        wildCardToken = _addressOfWildCardTokenContract;\n        wildCardSteward = _addressOfWildCardStewardContract;\n        dragonCardId = _dragonCardId;\n    }\n\n    function() external payable {}\n}\n",
  "sourcePath": "/home/jasoons/Documents/temp/wildcards-contractsQV/contracts/PlaceholderContract.sol",
  "compiler": {
    "name": "solc",
    "version": "0.5.15+commit.6a57276f.Emscripten.clang"
  },
  "schemaVersion": "3.0.23",
  "updatedAt": "2020-05-07T09:58:07.121Z",
  "devdoc": {
    "methods": {}
  },
  "userdoc": {
    "methods": {}
  }
}