{
  "contractName": "StewardMockup",
  "abi": [
    {
      "inputs": [],
      "payable": true,
      "stateMutability": "payable",
      "type": "constructor"
    },
    {
      "constant": true,
      "inputs": [
        {
          "internalType": "address",
          "name": "",
          "type": "address"
        }
      ],
      "name": "balance",
      "outputs": [
        {
          "internalType": "uint256",
          "name": "",
          "type": "uint256"
        }
      ],
      "payable": false,
      "stateMutability": "view",
      "type": "function"
    },
    {
      "constant": false,
      "inputs": [
        {
          "internalType": "uint256",
          "name": "id",
          "type": "uint256"
        }
      ],
      "name": "_collectPatronage",
      "outputs": [],
      "payable": false,
      "stateMutability": "nonpayable",
      "type": "function"
    },
    {
      "constant": false,
      "inputs": [
        {
          "internalType": "address",
          "name": "benefactor",
          "type": "address"
        }
      ],
      "name": "benefactorFunds",
      "outputs": [
        {
          "internalType": "uint256",
          "name": "",
          "type": "uint256"
        }
      ],
      "payable": false,
      "stateMutability": "nonpayable",
      "type": "function"
    },
    {
      "constant": false,
      "inputs": [
        {
          "internalType": "address payable",
          "name": "benefactor",
          "type": "address"
        }
      ],
      "name": "withdrawBenefactorFundsTo",
      "outputs": [],
      "payable": false,
      "stateMutability": "nonpayable",
      "type": "function"
    },
    {
      "constant": false,
      "inputs": [],
      "name": "topUpSteward",
      "outputs": [],
      "payable": true,
      "stateMutability": "payable",
      "type": "function"
    }
  ],
  "bytecode": "0x60806040526101be806100136000396000f3fe60806040526004361061004a5760003560e01c80632c3db6ea1461004f5780632f636a6f14610084578063c255dd001461008c578063e3d670d7146100d1578063fb84e7ec14610104575b600080fd5b34801561005b57600080fd5b506100826004803603602081101561007257600080fd5b50356001600160a01b031661012e565b005b61008261016b565b34801561009857600080fd5b506100bf600480360360208110156100af57600080fd5b50356001600160a01b031661016d565b60408051918252519081900360200190f35b3480156100dd57600080fd5b506100bf600480360360208110156100f457600080fd5b50356001600160a01b0316610172565b34801561011057600080fd5b506100826004803603602081101561012757600080fd5b5035610184565b60405147906001600160a01b0383169082156108fc029083906000818181858888f19350505050158015610166573d6000803e3d6000fd5b505050565b565b504790565b60006020819052908152604090205481565b60015556fea265627a7a72315820f9a6380984d246f0500ea55a3f570d5efd518901443d40e22c7f07ba64cbdf2f64736f6c634300050f0032",
  "source": "pragma solidity ^0.5.1;\n\nimport \"@openzeppelin/contracts-ethereum-package/contracts/token/ERC20/ERC20.sol\";\nimport \"@nomiclabs/buidler/console.sol\";\n\n\ncontract StewardMockup {\n    using SafeMath for uint256;\n\n    mapping(address => uint256) public balance;\n    uint256 compilerSuppressionVariable;\n\n    constructor() public payable {}\n\n    function _collectPatronage(uint256 id) public {\n        //this doesnt need to do anything\n        // remove compiler warnings:\n        compilerSuppressionVariable = id;\n    }\n\n    // NOTE: in the original contracts this is just a mapping.\n    function benefactorFunds(address benefactor) public returns (uint256) {\n        return address(this).balance;\n    }\n\n    function withdrawBenefactorFundsTo(address payable benefactor) public {\n        uint256 _fundsToDistribute = address(this).balance;\n        benefactor.transfer(_fundsToDistribute);\n    }\n\n    function topUpSteward() public payable {}\n}\n",
  "sourcePath": "/home/jasoons/Documents/temp/wildcards-contractsQV/contracts/mockups/StewardMockup.sol",
  "compiler": {
    "name": "solc",
    "version": "0.5.15+commit.6a57276f.Emscripten.clang"
  },
  "schemaVersion": "3.0.23",
  "updatedAt": "2020-05-07T08:06:19.885Z",
  "devdoc": {
    "methods": {}
  },
  "userdoc": {
    "methods": {}
  }
}