{
  "contractName": "WildCardTokenMockup",
  "abi": [
    {
      "constant": false,
      "inputs": [
        {
          "internalType": "address",
          "name": "_owner",
          "type": "address"
        }
      ],
      "name": "createToken",
      "outputs": [],
      "payable": false,
      "stateMutability": "nonpayable",
      "type": "function"
    },
    {
      "constant": true,
      "inputs": [
        {
          "internalType": "address",
          "name": "_owner",
          "type": "address"
        }
      ],
      "name": "balanceOf",
      "outputs": [
        {
          "internalType": "uint256",
          "name": "",
          "type": "uint256"
        }
      ],
      "payable": false,
      "stateMutability": "view",
      "type": "function"
    }
  ],
  "bytecode": "0x608060405234801561001057600080fd5b50610101806100206000396000f3fe6080604052348015600f57600080fd5b506004361060325760003560e01c806370a08231146037578063c21ab7f914606c575b600080fd5b605a60048036036020811015604b57600080fd5b50356001600160a01b03166091565b60408051918252519081900360200190f35b608f60048036036020811015608057600080fd5b50356001600160a01b031660ac565b005b6001600160a01b031660009081526020819052604090205490565b6001600160a01b031660009081526020819052604090208054600101905556fea265627a7a723158204aec8d65a5977db5f4a5b07213305c401c172ad4a54afacba55bbb5ff40efb5d64736f6c634300050f0032",
  "source": "pragma solidity ^0.5.1;\n\nimport \"@nomiclabs/buidler/console.sol\";\n\n\ncontract WildCardTokenMockup {\n    mapping(address => uint256) balances;\n\n    function createToken(address _owner) public {\n        balances[_owner] = balances[_owner] + 1;\n    }\n\n    function balanceOf(address _owner) public view returns (uint256) {\n        return balances[_owner];\n    }\n}\n",
  "sourcePath": "/home/jasoons/Documents/temp/wildcards-contractsQV/contracts/mockups/WildCardTokenMockup.sol",
  "compiler": {
    "name": "solc",
    "version": "0.5.15+commit.6a57276f.Emscripten.clang"
  },
  "schemaVersion": "3.0.23",
  "updatedAt": "2020-05-07T08:06:19.886Z",
  "devdoc": {
    "methods": {}
  },
  "userdoc": {
    "methods": {}
  }
}