{
  "contractName": "WildcardsQV",
  "abi": [
    {
      "anonymous": false,
      "inputs": [
        {
          "indexed": true,
          "internalType": "uint256",
          "name": "fundsDistributed",
          "type": "uint256"
        },
        {
          "indexed": true,
          "internalType": "uint256",
          "name": "totalVotes",
          "type": "uint256"
        },
        {
          "indexed": false,
          "internalType": "uint256",
          "name": "winningVotes",
          "type": "uint256"
        },
        {
          "indexed": true,
          "internalType": "uint256",
          "name": "winningProposal",
          "type": "uint256"
        },
        {
          "indexed": false,
          "internalType": "uint256",
          "name": "newDeadline",
          "type": "uint256"
        },
        {
          "indexed": false,
          "internalType": "uint256",
          "name": "newIteration",
          "type": "uint256"
        }
      ],
      "name": "LogFundsDistributed",
      "type": "event"
    },
    {
      "anonymous": false,
      "inputs": [
        {
          "indexed": true,
          "internalType": "uint256",
          "name": "newInterval",
          "type": "uint256"
        }
      ],
      "name": "LogNewVotingInterval",
      "type": "event"
    },
    {
      "anonymous": false,
      "inputs": [
        {
          "indexed": true,
          "internalType": "uint256",
          "name": "newProposalId",
          "type": "uint256"
        },
        {
          "indexed": true,
          "internalType": "address",
          "name": "newProposalAddress",
          "type": "address"
        }
      ],
      "name": "LogProposalCreated",
      "type": "event"
    },
    {
      "anonymous": false,
      "inputs": [
        {
          "indexed": true,
          "internalType": "uint256",
          "name": "proposalIdUpdated",
          "type": "uint256"
        },
        {
          "indexed": false,
          "internalType": "bool",
          "name": "isActive",
          "type": "bool"
        }
      ],
      "name": "LogProposalStateChange",
      "type": "event"
    },
    {
      "anonymous": false,
      "inputs": [
        {
          "indexed": true,
          "internalType": "uint256",
          "name": "proposalVotedFor",
          "type": "uint256"
        },
        {
          "indexed": true,
          "internalType": "uint256",
          "name": "votesCast",
          "type": "uint256"
        },
        {
          "indexed": false,
          "internalType": "uint256",
          "name": "totalVotesForProposal",
          "type": "uint256"
        },
        {
          "indexed": false,
          "internalType": "uint256",
          "name": "totalVotesAllProposals",
          "type": "uint256"
        },
        {
          "indexed": true,
          "internalType": "address",
          "name": "addressOfVoter",
          "type": "address"
        }
      ],
      "name": "LogVote",
      "type": "event"
    },
    {
      "payable": true,
      "stateMutability": "payable",
      "type": "fallback"
    },
    {
      "constant": true,
      "inputs": [],
      "name": "admin",
      "outputs": [
        {
          "internalType": "address",
          "name": "",
          "type": "address"
        }
      ],
      "payable": false,
      "stateMutability": "view",
      "type": "function"
    },
    {
      "constant": true,
      "inputs": [],
      "name": "currentHighestVoteCount",
      "outputs": [
        {
          "internalType": "uint256",
          "name": "",
          "type": "uint256"
        }
      ],
      "payable": false,
      "stateMutability": "view",
      "type": "function"
    },
    {
      "constant": true,
      "inputs": [],
      "name": "currentWinner",
      "outputs": [
        {
          "internalType": "uint256",
          "name": "",
          "type": "uint256"
        }
      ],
      "payable": false,
      "stateMutability": "view",
      "type": "function"
    },
    {
      "constant": true,
      "inputs": [],
      "name": "dragonCardId",
      "outputs": [
        {
          "internalType": "uint256",
          "name": "",
          "type": "uint256"
        }
      ],
      "payable": false,
      "stateMutability": "view",
      "type": "function"
    },
    {
      "constant": true,
      "inputs": [
        {
          "internalType": "address",
          "name": "",
          "type": "address"
        }
      ],
      "name": "failedTransferCredits",
      "outputs": [
        {
          "internalType": "uint256",
          "name": "",
          "type": "uint256"
        }
      ],
      "payable": false,
      "stateMutability": "view",
      "type": "function"
    },
    {
      "constant": true,
      "inputs": [
        {
          "internalType": "uint256",
          "name": "",
          "type": "uint256"
        },
        {
          "internalType": "address",
          "name": "",
          "type": "address"
        },
        {
          "internalType": "uint256",
          "name": "",
          "type": "uint256"
        }
      ],
      "name": "hasUserVotedForProposalIteration",
      "outputs": [
        {
          "internalType": "bool",
          "name": "",
          "type": "bool"
        }
      ],
      "payable": false,
      "stateMutability": "view",
      "type": "function"
    },
    {
      "constant": true,
      "inputs": [],
      "name": "latestProposalId",
      "outputs": [
        {
          "internalType": "uint256",
          "name": "",
          "type": "uint256"
        }
      ],
      "payable": false,
      "stateMutability": "view",
      "type": "function"
    },
    {
      "constant": true,
      "inputs": [],
      "name": "loyaltyToken",
      "outputs": [
        {
          "internalType": "contract ILoyaltyToken",
          "name": "",
          "type": "address"
        }
      ],
      "payable": false,
      "stateMutability": "view",
      "type": "function"
    },
    {
      "constant": true,
      "inputs": [
        {
          "internalType": "uint256",
          "name": "",
          "type": "uint256"
        }
      ],
      "name": "proposalAddresses",
      "outputs": [
        {
          "internalType": "address payable",
          "name": "",
          "type": "address"
        }
      ],
      "payable": false,
      "stateMutability": "view",
      "type": "function"
    },
    {
      "constant": true,
      "inputs": [],
      "name": "proposalDeadline",
      "outputs": [
        {
          "internalType": "uint256",
          "name": "",
          "type": "uint256"
        }
      ],
      "payable": false,
      "stateMutability": "view",
      "type": "function"
    },
    {
      "constant": true,
      "inputs": [],
      "name": "proposalIteration",
      "outputs": [
        {
          "internalType": "uint256",
          "name": "",
          "type": "uint256"
        }
      ],
      "payable": false,
      "stateMutability": "view",
      "type": "function"
    },
    {
      "constant": true,
      "inputs": [
        {
          "internalType": "uint256",
          "name": "",
          "type": "uint256"
        },
        {
          "internalType": "uint256",
          "name": "",
          "type": "uint256"
        }
      ],
      "name": "proposalVotes",
      "outputs": [
        {
          "internalType": "uint256",
          "name": "",
          "type": "uint256"
        }
      ],
      "payable": false,
      "stateMutability": "view",
      "type": "function"
    },
    {
      "constant": true,
      "inputs": [
        {
          "internalType": "uint256",
          "name": "",
          "type": "uint256"
        }
      ],
      "name": "state",
      "outputs": [
        {
          "internalType": "enum WildcardsQV.ProposalState",
          "name": "",
          "type": "uint8"
        }
      ],
      "payable": false,
      "stateMutability": "view",
      "type": "function"
    },
    {
      "constant": true,
      "inputs": [
        {
          "internalType": "uint256",
          "name": "",
          "type": "uint256"
        }
      ],
      "name": "topProject",
      "outputs": [
        {
          "internalType": "uint256",
          "name": "",
          "type": "uint256"
        }
      ],
      "payable": false,
      "stateMutability": "view",
      "type": "function"
    },
    {
      "constant": true,
      "inputs": [],
      "name": "totalVotes",
      "outputs": [
        {
          "internalType": "uint256",
          "name": "",
          "type": "uint256"
        }
      ],
      "payable": false,
      "stateMutability": "view",
      "type": "function"
    },
    {
      "constant": true,
      "inputs": [],
      "name": "votingInterval",
      "outputs": [
        {
          "internalType": "uint256",
          "name": "",
          "type": "uint256"
        }
      ],
      "payable": false,
      "stateMutability": "view",
      "type": "function"
    },
    {
      "constant": true,
      "inputs": [],
      "name": "wildCardSteward",
      "outputs": [
        {
          "internalType": "contract IWildCardSteward",
          "name": "",
          "type": "address"
        }
      ],
      "payable": false,
      "stateMutability": "view",
      "type": "function"
    },
    {
      "constant": true,
      "inputs": [],
      "name": "wildCardToken",
      "outputs": [
        {
          "internalType": "contract IWildCardToken",
          "name": "",
          "type": "address"
        }
      ],
      "payable": false,
      "stateMutability": "view",
      "type": "function"
    },
    {
      "constant": false,
      "inputs": [
        {
          "internalType": "uint256",
          "name": "_votingInterval",
          "type": "uint256"
        },
        {
          "internalType": "contract ILoyaltyToken",
          "name": "_addressOfLoyalyTokenContract",
          "type": "address"
        },
        {
          "internalType": "contract IWildCardToken",
          "name": "_addressOfWildCardTokenContract",
          "type": "address"
        },
        {
          "internalType": "contract IWildCardSteward",
          "name": "_addressOfWildCardStewardContract",
          "type": "address"
        },
        {
          "internalType": "uint256",
          "name": "_dragonCardId",
          "type": "uint256"
        }
      ],
      "name": "initialize",
      "outputs": [],
      "payable": false,
      "stateMutability": "nonpayable",
      "type": "function"
    },
    {
      "constant": false,
      "inputs": [],
      "name": "initialize2",
      "outputs": [],
      "payable": false,
      "stateMutability": "nonpayable",
      "type": "function"
    },
    {
      "constant": false,
      "inputs": [
        {
          "internalType": "uint256",
          "name": "newInterval",
          "type": "uint256"
        }
      ],
      "name": "changeVotingInterval",
      "outputs": [],
      "payable": false,
      "stateMutability": "nonpayable",
      "type": "function"
    },
    {
      "constant": false,
      "inputs": [
        {
          "internalType": "uint256",
          "name": "_proposalId",
          "type": "uint256"
        },
        {
          "internalType": "bool",
          "name": "newState",
          "type": "bool"
        }
      ],
      "name": "changeProposalState",
      "outputs": [],
      "payable": false,
      "stateMutability": "nonpayable",
      "type": "function"
    },
    {
      "constant": false,
      "inputs": [
        {
          "internalType": "address payable",
          "name": "_addressOfCharity",
          "type": "address"
        }
      ],
      "name": "createProposal",
      "outputs": [
        {
          "internalType": "uint256",
          "name": "newProposalId",
          "type": "uint256"
        }
      ],
      "payable": false,
      "stateMutability": "nonpayable",
      "type": "function"
    },
    {
      "constant": false,
      "inputs": [
        {
          "internalType": "uint256",
          "name": "proposalId",
          "type": "uint256"
        },
        {
          "internalType": "address payable",
          "name": "newOrganisationAddress",
          "type": "address"
        }
      ],
      "name": "updateProposalLinkedAddress",
      "outputs": [],
      "payable": false,
      "stateMutability": "nonpayable",
      "type": "function"
    },
    {
      "constant": false,
      "inputs": [
        {
          "internalType": "uint256",
          "name": "proposalIdToVoteFor",
          "type": "uint256"
        },
        {
          "internalType": "uint256",
          "name": "amount",
          "type": "uint256"
        },
        {
          "internalType": "uint256",
          "name": "sqrt",
          "type": "uint256"
        }
      ],
      "name": "vote",
      "outputs": [],
      "payable": false,
      "stateMutability": "nonpayable",
      "type": "function"
    },
    {
      "constant": false,
      "inputs": [],
      "name": "withdrawAllFailedCredits",
      "outputs": [],
      "payable": false,
      "stateMutability": "nonpayable",
      "type": "function"
    },
    {
      "constant": false,
      "inputs": [],
      "name": "distributeFunds",
      "outputs": [],
      "payable": false,
      "stateMutability": "nonpayable",
      "type": "function"
    }
  ],
  "bytecode": "0x6080604052604180546001600160a01b03191661dead17905534801561002457600080fd5b50611686806100346000396000f3fe60806040526004361061019c5760003560e01c80637f0edf33116100ec578063b8f12f1c1161008a578063daf12cd411610064578063daf12cd4146104dd578063dd5aca2a1461052c578063f851a44014610565578063ff299e5f1461057a5761019c565b8063b8f12f1c1461044b578063bb5e711a14610460578063bdd882f0146104b35761019c565b8063a17ad776116100c6578063a17ad776146103f7578063aabe2fe31461040c578063b6ad691414610421578063b7a7a195146104365761019c565b80637f0edf33146103825780638a6655d614610397578063924c7514146103cd5761019c565b8063472abf68116101595780637566ad53116101335780637566ad53146103125780637584939914610327578063770aa84d1461033c5780637ce1f8441461036d5761019c565b8063472abf68146102a057806351252f6c146102b55780635a582260146102df5761019c565b806307eecaf51461019e5780630d15fd77146101e35780630d68eb9e146101f857806329e28d26146102285780633a6a4d2e1461023d5780633e4f49e614610252575b005b3480156101aa57600080fd5b506101d1600480360360208110156101c157600080fd5b50356001600160a01b03166105ac565b60408051918252519081900360200190f35b3480156101ef57600080fd5b506101d1610689565b34801561020457600080fd5b506101d16004803603604081101561021b57600080fd5b508035906020013561068f565b34801561023457600080fd5b506101d16106ac565b34801561024957600080fd5b5061019c6106b2565b34801561025e57600080fd5b5061027c6004803603602081101561027557600080fd5b50356109b0565b6040518082600281111561028c57fe5b60ff16815260200191505060405180910390f35b3480156102ac57600080fd5b5061019c6109c5565b3480156102c157600080fd5b5061019c600480360360208110156102d857600080fd5b5035610a87565b3480156102eb57600080fd5b506101d16004803603602081101561030257600080fd5b50356001600160a01b0316610b05565b34801561031e57600080fd5b506101d1610b17565b34801561033357600080fd5b506101d1610b1d565b34801561034857600080fd5b50610351610b23565b604080516001600160a01b039092168252519081900360200190f35b34801561037957600080fd5b506101d1610b32565b34801561038e57600080fd5b506101d1610b38565b3480156103a357600080fd5b5061019c600480360360608110156103ba57600080fd5b5080359060208101359060400135610b3e565b3480156103d957600080fd5b50610351600480360360208110156103f057600080fd5b5035610ef3565b34801561040357600080fd5b506101d1610f0e565b34801561041857600080fd5b506101d1610f14565b34801561042d57600080fd5b5061019c610f1a565b34801561044257600080fd5b50610351610f80565b34801561045757600080fd5b50610351610f8f565b34801561046c57600080fd5b5061049f6004803603606081101561048357600080fd5b508035906001600160a01b036020820135169060400135610f9e565b604080519115158252519081900360200190f35b3480156104bf57600080fd5b506101d1600480360360208110156104d657600080fd5b5035610fc4565b3480156104e957600080fd5b5061019c600480360360a081101561050057600080fd5b508035906001600160a01b03602082013581169160408101358216916060820135169060800135610fd6565b34801561053857600080fd5b5061019c6004803603604081101561054f57600080fd5b50803590602001356001600160a01b0316611130565b34801561057157600080fd5b50610351611209565b34801561058657600080fd5b5061019c6004803603604081101561059d57600080fd5b50803590602001351515611218565b6033546000906001600160a01b031633146105fa576040805162461bcd60e51b81526020600482015260096024820152682737ba1030b236b4b760b91b604482015290519081900360640190fd5b603a5461060e90600163ffffffff6112dd16565b603a8181556000918252603c6020908152604080842080546001600160a01b0388166001600160a01b0319909116811790915583548552603d909252808420805460ff191660021790559154915190927fbb5cb4fe5f8ce229749057e580e6821bbc09458d69130d3abe8033977368086991a35050603a5490565b60445481565b603f60209081526000928352604080842090915290825290205481565b60425481565b42603b5410610708576040805162461bcd60e51b815260206004820152601c60248201527f497465726174696f6e20696e74657276616c206e6f7420656e64656400000000604482015290519081900360640190fd5b6042546107845760385461072390429063ffffffff6112dd16565b603b5560395461073a90600163ffffffff6112dd16565b60398190555060008060006000805160206116058339815191526000603b5460395460405180848152602001838152602001828152602001935050505060405180910390a46109ae565b60365460375460408051633ee139fb60e21b815260048101929092525130926001600160a01b03169163fb84e7ec91602480830192600092919082900301818387803b1580156107d357600080fd5b505af11580156107e7573d6000803e3d6000fd5b50506036546040805162c255dd60e81b81526001600160a01b03868116600483015291516000955091909216925063c255dd009160248082019260209290919082900301818787803b15801561083c57600080fd5b505af1158015610850573d6000803e3d6000fd5b505050506040513d602081101561086657600080fd5b50516036546040805163161edb7560e11b81526001600160a01b0386811660048301529151939450911691632c3db6ea9160248082019260009290919082900301818387803b1580156108b857600080fd5b505af11580156108cc573d6000803e3d6000fd5b5050505060006108e660648361134090919063ffffffff16565b905060006108fa838363ffffffff61138216565b905061090633836113c4565b6043546000908152603c60205260409020546001600160a01b031661092b81836113c4565b60385461093f90429063ffffffff6112dd16565b603b5560395461095690600163ffffffff6112dd16565b60398190555060435460445485600080516020611605833981519152604254603b5460395460405180848152602001838152602001828152602001935050505060405180910390a45050600060428190556044555050505b565b603d6020526000908152604090205460ff1681565b6034546001600160a01b031673773c75c2277ed3e402bdefd28ec3b51a3afbd8a41415610a24576040805162461bcd60e51b81526020600482015260086024820152671d5c19dc9859195960c21b604482015290519081900360640190fd5b603480546001600160a01b03191673773c75c2277ed3e402bdefd28ec3b51a3afbd8a4179055603b5460395460408051600080825260208201949094528082019290925251829182916000805160206116058339815191529181900360600190a4565b6033546001600160a01b03163314610ad2576040805162461bcd60e51b81526020600482015260096024820152682737ba1030b236b4b760b91b604482015290519081900360640190fd5b603881905560405181907f31ea2ea4bc25a8b86f863a4033bdc12071a2187d8fa60426e2647a65ec129c9c90600090a250565b60456020526000908152604090205481565b60385481565b60395481565b6034546001600160a01b031681565b603b5481565b603a5481565b603554604080516370a0823160e01b815233600482015290516000926001600160a01b0316916370a08231916024808301926020929190829003018186803b158015610b8957600080fd5b505afa158015610b9d573d6000803e3d6000fd5b505050506040513d6020811015610bb357600080fd5b505111610c07576040805162461bcd60e51b815260206004820152601760248201527f446f6573206e6f74206f776e20612057696c6443617264000000000000000000604482015290519081900360640190fd5b60008211610c51576040805162461bcd60e51b8152602060048201526012602482015271043616e6e6f7420766f7465207769746820360741b604482015290519081900360640190fd5b60026000848152603d602052604090205460ff166002811115610c7057fe5b14610cb8576040805162461bcd60e51b815260206004820152601360248201527250726f706f73616c206e6f742041637469766560681b604482015290519081900360640190fd5b6039546000908152603e60209081526040808320338452825280832086845290915290205460ff1615610d32576040805162461bcd60e51b815260206004820152601e60248201527f416c726561647920766f746564206f6e20746869732070726f706f73616c0000604482015290519081900360640190fd5b6034546040805163079cc67960e41b81523360048201526024810185905290516001600160a01b03909216916379cc67909160448082019260009290919082900301818387803b158015610d8557600080fd5b505af1158015610d99573d6000803e3d6000fd5b5050505081610db1828361145a90919063ffffffff16565b14610dfb576040805162461bcd60e51b815260206004820152601560248201527414dc5d585c99481c9bdbdd081a5b98dbdc9c9958dd605a1b604482015290519081900360640190fd5b603980546000908152603e6020908152604080832033845282528083208784528252808320805460ff1916600117905592548252603f815282822086835290522054610e4d908263ffffffff6112dd16565b603980546000908152603f602081815260408084208985528252808420959095559254825282528281208682529091522054604254811115610e9457604281905560438490555b604454610ea7908363ffffffff6112dd16565b604481905560408051838152602081019290925280513392859288927f8156901e268aea902371f0e4c4765356ce23f34d2c58a4052bf6835f6270e75a9281900390910190a450505050565b603c602052600090815260409020546001600160a01b031681565b60375481565b60435481565b3360009081526045602052604090205480610f3457600080fd5b80471015610f4157600080fd5b336000818152604560205260408082208290555183156108fc0291849190818181858888f19350505050158015610f7c573d6000803e3d6000fd5b5050565b6036546001600160a01b031681565b6035546001600160a01b031681565b603e60209081526000938452604080852082529284528284209052825290205460ff1681565b60406020819052600091825290205481565b600054610100900460ff1680610fef5750610fef6114b3565b80610ffd575060005460ff16155b6110385760405162461bcd60e51b815260040180806020018281038252602e8152602001806115d7602e913960400191505060405180910390fd5b600054610100900460ff16158015611063576000805460ff1961ff0019909116610100171660011790555b603380546001600160a01b03191633179055603886905561108a428763ffffffff6112dd16565b603b819055600060428190556044819055603480546001600160a01b03808a166001600160a01b03199283161790925560358054898416908316179055603680549288169290911691909117905560378490556039546040805183815260208101949094528381019190915251909182918291600080516020611605833981519152919081900360600190a48015611128576000805461ff00191690555b505050505050565b6001600160a01b0381163314156111785760405162461bcd60e51b815260040180806020018281038252602d815260200180611625602d913960400191505060405180910390fd5b6000828152603c60205260409020546001600160a01b031633146111db576040805162461bcd60e51b8152602060048201526015602482015274139bdd081bdddb995c881bd9881c1c9bdc1bdcd85b605a1b604482015290519081900360640190fd5b6000918252603c602052604090912080546001600160a01b0319166001600160a01b03909216919091179055565b6033546001600160a01b031681565b6033546001600160a01b03163314611263576040805162461bcd60e51b81526020600482015260096024820152682737ba1030b236b4b760b91b604482015290519081900360640190fd5b8015611287576000828152603d60205260409020805460ff191660021790556112a1565b6000828152603d60205260409020805460ff191660011790555b604080518215158152905183917fdc13fcc6f63ec77dc403e7940f2785d0e61d9a27f697a1610a742f3a72c45fef919081900360200190a25050565b600082820183811015611337576040805162461bcd60e51b815260206004820152601b60248201527f536166654d6174683a206164646974696f6e206f766572666c6f770000000000604482015290519081900360640190fd5b90505b92915050565b600061133783836040518060400160405280601a81526020017f536166654d6174683a206469766973696f6e206279207a65726f0000000000008152506114b9565b600061133783836040518060400160405280601e81526020017f536166654d6174683a207375627472616374696f6e206f766572666c6f77000081525061155b565b6000826001600160a01b0316610834836040518080630323330360e41b8152506004019050600060405180830381858888f193505050503d8060008114611427576040519150601f19603f3d011682016040523d82523d6000602084013e61142c565b606091505b509091505080611455576001600160a01b03831660009081526045602052604090208054830190555b505050565b6000826114695750600061133a565b8282028284828161147657fe5b04146113375760405162461bcd60e51b81526004018080602001828103825260218152602001806115b66021913960400191505060405180910390fd5b303b1590565b600081836115455760405162461bcd60e51b81526004018080602001828103825283818151815260200191508051906020019080838360005b8381101561150a5781810151838201526020016114f2565b50505050905090810190601f1680156115375780820380516001836020036101000a031916815260200191505b509250505060405180910390fd5b50600083858161155157fe5b0495945050505050565b600081848411156115ad5760405162461bcd60e51b815260206004820181815283516024840152835190928392604490910191908501908083836000831561150a5781810151838201526020016114f2565b50505090039056fe536166654d6174683a206d756c7469706c69636174696f6e206f766572666c6f77436f6e747261637420696e7374616e63652068617320616c7265616479206265656e20696e697469616c697a65642a08c6cd4dd7d763b829e5460b9b8dd8c6dec87c26460cab4d34838740e2ad6343616e6e6f74206368616e6765206f7267616e69736174696f6e73206164647265737320746f20697473656c66a265627a7a72315820107955da9a9a57dbc2c267b8534b57997c71f30e6afd32fa31a5154f01c4a80964736f6c634300050f0032",
  "source": "pragma solidity 0.5.15;\n\nimport \"@openzeppelin/contracts-ethereum-package/contracts/token/ERC20/ERC20.sol\";\nimport \"@nomiclabs/buidler/console.sol\";\nimport \"./interfaces/ILoyaltyToken.sol\";\nimport \"./interfaces/IWildCardToken.sol\";\nimport \"./interfaces/IWildCardSteward.sol\";\n\n\ncontract WildcardsQV is Initializable {\n    using SafeMath for uint256;\n\n    //////// MASTER //////////////\n    address public admin;\n\n    //////// External contract specific //////////\n    ILoyaltyToken public loyaltyToken;\n    IWildCardToken public wildCardToken;\n    IWildCardSteward public wildCardSteward;\n    uint256 public dragonCardId;\n\n    //////// Iteration specific //////////\n    uint256 public votingInterval;\n    uint256 public proposalIteration;\n\n    ///////// Proposal specific ///////////\n    uint256 public latestProposalId;\n    uint256 public proposalDeadline; // keeping track of time\n    mapping(uint256 => address payable) public proposalAddresses;\n    enum ProposalState {DoesNotExist, Withdrawn, Active}\n    mapping(uint256 => ProposalState) public state; // ProposalId to current state\n\n    //////// DAO / VOTE specific //////////\n    // TODO: - we can replace `hasUserVotedForProposalIniteration` value with `userProposalVotes` in the future and allow user to vote multiple times\n    mapping(uint256 => mapping(address => mapping(uint256 => bool))) public hasUserVotedForProposalIteration; /// iteration -> userAddress -> proposalId -> bool\n    mapping(uint256 => mapping(uint256 => uint256)) public proposalVotes; /// iteration -> proposalId -> num votes\n    mapping(uint256 => uint256) public topProject;\n    address burnAddress = 0x000000000000000000000000000000000000dEaD;\n    uint256 public currentHighestVoteCount;\n    uint256 public currentWinner;\n    uint256 public totalVotes;\n\n    // if a payment fails, the user will be able to pull the amount stored here:\n    mapping(address => uint256) public failedTransferCredits;\n\n    ////////////////////////////////////\n    //////// Events ///////////////////\n    ////////////////////////////////////\n    event LogNewVotingInterval(uint256 indexed newInterval);\n    event LogProposalStateChange(\n        uint256 indexed proposalIdUpdated,\n        bool isActive\n    );\n    event LogProposalCreated(\n        uint256 indexed newProposalId,\n        address indexed newProposalAddress\n    );\n    event LogVote(\n        uint256 indexed proposalVotedFor,\n        uint256 indexed votesCast,\n        uint256 totalVotesForProposal,\n        uint256 totalVotesAllProposals,\n        address indexed addressOfVoter\n    );\n    event LogFundsDistributed(\n        uint256 indexed fundsDistributed,\n        uint256 indexed totalVotes,\n        uint256 winningVotes,\n        uint256 indexed winningProposal,\n        uint256 newDeadline,\n        uint256 newIteration\n    );\n\n    ////////////////////////////////////\n    //////// Modifiers /////////////////\n    ////////////////////////////////////\n    modifier onlyAdmin() {\n        require(msg.sender == admin, \"Not admin\");\n        _;\n    }\n\n    ////////////////////////////////////\n    //////// SETUP CONTRACT////////////\n    //// NOTE: Upgradable at the moment\n    function initialize(\n        uint256 _votingInterval,\n        ILoyaltyToken _addressOfLoyalyTokenContract,\n        IWildCardToken _addressOfWildCardTokenContract,\n        IWildCardSteward _addressOfWildCardStewardContract,\n        uint256 _dragonCardId\n    ) public initializer {\n        admin = msg.sender;\n        votingInterval = _votingInterval;\n\n        proposalDeadline = now.add(_votingInterval);\n        currentHighestVoteCount = 0;\n        totalVotes = 0;\n\n        // externals:\n        loyaltyToken = _addressOfLoyalyTokenContract;\n        wildCardToken = _addressOfWildCardTokenContract;\n        wildCardSteward = _addressOfWildCardStewardContract;\n        dragonCardId = _dragonCardId;\n\n        // Perhaps this event is Misnamed, but we need an event to tell thegraph that things are starting up.\n        emit LogFundsDistributed(\n            0,\n            0,\n            0,\n            0,\n            proposalDeadline,\n            proposalIteration\n        );\n    }\n\n    function initialize2() public {\n        require(\n            loyaltyToken !=\n                ILoyaltyToken(0x773c75c2277eD3e402BDEfd28Ec3b51A3AfbD8a4),\n            \"upgraded\"\n        );\n\n        loyaltyToken = ILoyaltyToken(\n            0x773c75c2277eD3e402BDEfd28Ec3b51A3AfbD8a4\n        );\n\n        // Perhaps this event is Misnamed, but we need an event to tell thegraph that things are starting up.\n        emit LogFundsDistributed(\n            0,\n            0,\n            0,\n            0,\n            proposalDeadline,\n            proposalIteration\n        );\n    }\n\n    ///////////////////////////////////\n    /////// Config functions //////////\n    ///////////////////////////////////\n    function changeVotingInterval(uint256 newInterval) external onlyAdmin {\n        votingInterval = newInterval;\n        emit LogNewVotingInterval(newInterval);\n    }\n\n    function changeProposalState(uint256 _proposalId, bool newState)\n        external\n        onlyAdmin\n    {\n        // state: true = Active, false = Withdrawn\n        if (newState) {\n            state[_proposalId] = ProposalState.Active;\n        } else {\n            state[_proposalId] = ProposalState.Withdrawn;\n        }\n        emit LogProposalStateChange(_proposalId, newState);\n    }\n\n    ///////////////////////////////////\n    /////// CreateProposal  ///////////\n    ///////////////////////////////////\n    function createProposal(address payable _addressOfCharity)\n        external\n        onlyAdmin\n        returns (uint256 newProposalId)\n    {\n        latestProposalId = latestProposalId.add(1);\n        proposalAddresses[latestProposalId] = _addressOfCharity;\n        state[latestProposalId] = ProposalState.Active;\n        emit LogProposalCreated(latestProposalId, _addressOfCharity);\n\n        return latestProposalId; // <- so it is returning the ID of the created proposal\n    }\n\n    function updateProposalLinkedAddress(\n        uint256 proposalId,\n        address payable newOrganisationAddress\n    ) external {\n        require(\n            newOrganisationAddress != msg.sender,\n            \"Cannot change organisations address to itself\"\n        );\n        require(\n            msg.sender == proposalAddresses[proposalId],\n            \"Not owner of proposal\"\n        );\n        proposalAddresses[proposalId] = newOrganisationAddress;\n    }\n\n    ///////////////////////////////////\n    /////// vote function  ///////////\n    ///////////////////////////////////\n    function vote(uint256 proposalIdToVoteFor, uint256 amount, uint256 sqrt)\n        external\n    {\n        // Check they are a wildcards user\n        require(\n            wildCardToken.balanceOf(msg.sender) > 0,\n            \"Does not own a WildCard\"\n        );\n\n        // Check they have at least 1 unit of wildcards loyalty token:\n        require(amount > 0, \"Cannot vote with 0\");\n\n        // Check they are voting for a valid proposal:\n        require(\n            state[proposalIdToVoteFor] == ProposalState.Active,\n            \"Proposal not Active\"\n        );\n\n        // Check that they haven't yet voted for the proposal in this iteration\n        require(\n            !hasUserVotedForProposalIteration[proposalIteration][msg\n                .sender][proposalIdToVoteFor],\n            \"Already voted on this proposal\"\n        );\n\n        // Remove these tokens from circulation - this function reverts if there is an issue.\n        loyaltyToken.burnFrom(msg.sender, amount);\n\n        // Validate the square root\n        require(sqrt.mul(sqrt) == amount, \"Square root incorrect\");\n\n        hasUserVotedForProposalIteration[proposalIteration][msg\n            .sender][proposalIdToVoteFor] = true;\n\n        // Add the tokens to the total tally\n        proposalVotes[proposalIteration][proposalIdToVoteFor] = proposalVotes[proposalIteration][proposalIdToVoteFor]\n            .add(sqrt);\n\n\n            uint256 _currentVoteCount\n         = proposalVotes[proposalIteration][proposalIdToVoteFor];\n        // Take note that the user has voted on this proposal so they can't do it again\n\n        // Update currentWinner, currentHighestVoteCount, totalVotes\n        if (_currentVoteCount > currentHighestVoteCount) {\n            currentHighestVoteCount = _currentVoteCount;\n            currentWinner = proposalIdToVoteFor;\n        }\n\n        totalVotes = totalVotes.add(sqrt);\n        emit LogVote(\n            proposalIdToVoteFor,\n            sqrt,\n            _currentVoteCount,\n            totalVotes,\n            msg.sender\n        );\n    }\n\n    function safeFundsTransfer(address payable recipient, uint256 amount)\n        internal\n    {\n        // attempt to send the funds to the recipient\n        (bool success, ) = recipient.call.gas(2100).value(amount)(\"2300\");\n        // if it failed, update their credit balance so they can pull it later\n        if (success == false) {\n            failedTransferCredits[recipient] += amount;\n        }\n    }\n\n    function withdrawAllFailedCredits() public {\n        uint256 amount = failedTransferCredits[msg.sender];\n\n        require(amount != 0);\n        require(address(this).balance >= amount);\n\n        failedTransferCredits[msg.sender] = 0;\n\n        // safeFundsTransfer(msg.sender, amount);\n        // NOTE: this is safe since `transfer` reverts the transaction on failure.\n        msg.sender.transfer(amount);\n    }\n\n    ///////////////////////////////////\n    //// Iteration changes/////////////\n    ///////////////////////////////////\n    function distributeFunds() public {\n        require(proposalDeadline < now, \"Iteration interval not ended\");\n\n        // This happens if there is no winner.\n        if (currentHighestVoteCount == 0) {\n            proposalDeadline = now.add(votingInterval);\n            proposalIteration = proposalIteration.add(1);\n            emit LogFundsDistributed(\n                0,\n                0,\n                0,\n                0,\n                proposalDeadline,\n                proposalIteration\n            );\n            return;\n        }\n        address payable _thisAddress = address(this); // <-- this is required to cast address to address payable\n\n        // Collect patronage on the WildCard\n        wildCardSteward._collectPatronage(dragonCardId);\n\n        uint256 amountRaisedInIteration = wildCardSteward.benefactorFunds(\n            _thisAddress\n        );\n\n        // Transfer patronage to this contract\n        wildCardSteward.withdrawBenefactorFundsTo(_thisAddress);\n\n        // Send 1% to message caller as incentive\n        uint256 incentiveForCaller = amountRaisedInIteration.div(100);\n        uint256 payoutForWinner = amountRaisedInIteration.sub(\n            incentiveForCaller\n        );\n\n        safeFundsTransfer(msg.sender, incentiveForCaller);\n        address payable _addressOfWinner = proposalAddresses[currentWinner];\n        safeFundsTransfer(_addressOfWinner, payoutForWinner);\n\n        // Clean up for next iteration\n        proposalDeadline = now.add(votingInterval);\n        proposalIteration = proposalIteration.add(1);\n        emit LogFundsDistributed(\n            amountRaisedInIteration,\n            totalVotes,\n            currentHighestVoteCount,\n            currentWinner,\n            proposalDeadline,\n            proposalIteration\n        );\n\n        currentHighestVoteCount = 0;\n        totalVotes = 0;\n    }\n\n    ///////////////////////////////////\n    /////////// Fallback /////////////\n    ///////////////////////////////////\n    function() external payable {}\n}\n",
  "sourcePath": "/home/jasoons/Documents/temp/wildcards-contractsQV/contracts/WildcardsQV.sol",
  "compiler": {
    "name": "solc",
    "version": "0.5.15+commit.6a57276f.Emscripten.clang"
  },
  "schemaVersion": "3.0.23",
  "updatedAt": "2020-05-07T09:58:07.126Z",
  "devdoc": {
    "methods": {}
  },
  "userdoc": {
    "methods": {
      "changeVotingInterval(uint256)": {
        "notice": "//////////////////////////////// //// Config functions ////////// ////////////////////////////////"
      },
      "createProposal(address)": {
        "notice": "//////////////////////////////// //// CreateProposal  /////////// ////////////////////////////////"
      },
      "distributeFunds()": {
        "notice": "//////////////////////////////// / Iteration changes///////////// ////////////////////////////////"
      },
      "initialize(uint256,address,address,address,uint256)": {
        "notice": "///////////////////////////////// ///// SETUP CONTRACT//////////// / NOTE: Upgradable at the moment"
      },
      "vote(uint256,uint256,uint256)": {
        "notice": "//////////////////////////////// //// vote function  /////////// ////////////////////////////////"
      }
    }
  }
}